:10000000DDC00000F7C00000F5C00000F3C0000034
:10001000F1C00000EFC00000EDC00000EBC0000028
:10002000E9C00000E7C00000E5C00000FCC6000019
:10003000A0C70000DFC00000DDC00000DBC0000082
:10004000D9C00000D7C00000D5C00000D3C0000058
:10005000D1C00000CFC00000CDC0000014C300001C
:10006000C9C00000C7C00000C5C00000C3C0000078
:10007000C1C000002A03430061006E0064007900E3
:1000800058002000440044004A0020004D00490070
:100090004400490020004D006F006400650000002E
:1000A0003003430061006E006400790058002000B6
:1000B000440044004A0020005300650074007400AE
:1000C00069006E00670020004D006F00640065004D
:1000D00000001C0356006900630074006F0072008A
:1000E0002000430061007300610064006F000000A5
:1000F0000403090409026500020100C0320904007A
:1001000000000101000009240100010900010109AA
:100110000401000201030000072401000141000660
:100120002402010100062402020200092403010343
:100130000102010009240302040101010009050272
:10014000024000050000052501010109058102406A
:1001500000050000052501010309023E000201001F
:10016000C032090400000102020100052400100150
:10017000042402060524060001070582030800FF87
:1001800009040100020A000000070504021000052E
:10019000070583021000051201100100000008D8B5
:1001A0000467ED01000102000112011001020000CC
:1001B00008EB034B2001000102DC010011241FBEEB
:1001C000CFEFD2E0DEBFCDBF11E0A0E0B1E0E4E0D0
:1001D000F6E102C005900D92AE31B107D9F722E0E9
:1001E000AEE1B1E001C01D92A235B207E1F72CD11A
:1001F0000C94000B05CF8AB1806F8AB98BB18F70D8
:100200008BB908959BB19F70892B8BB90895FC0120
:10021000A081B1816C9380819181019691838083CB
:10022000268137818217930721F4848195819183F8
:1002300080832FB7F8948285938501969387828770
:100240002FBF0895FC01A281B3818D91B383A28356
:1002500026813781A217B30721F4248135813383A6
:1002600022839FB7F8942285338521503109338743
:1002700022879FBF089514B884E085B983B11A9985
:1002800004C010921C0110921B0180911B019091DF
:100290001C01009779F484B7877F84BF0FB6F89468
:1002A000A895809160008861809360001092600042
:1002B0000FBE29C0019791F584B7877F84BF0FB621
:1002C000F894A895809160008861809360001092F6
:1002D00060000FBE8FE190E09093CD008093CC0042
:1002E00086E08093CA001092C80088E18093C9001C
:1002F000539A5A9A84E085BD1092C90088E9809388
:10030000C900469A3E9A90E080E80FB6F894809330
:100310006100909361000FBE6EDF76C5089580EA9C
:1003200071CF80E16FCFCF9380911B0190911C0121
:10033000009721F480E091E0D8D70EC0019711F02A
:1003400080E60DC042E361E881E065D4C82F42E356
:1003500060E882E060D48C238111F2CF80E9CF91F4
:1003600051CF80E091E00C942F0ACF93CEB3C430EC
:1003700031F581E08093E9008091E80080FF1FC0A3
:1003800080913E028823D9F010923E0240E050E076
:1003900064E070E08AE392E0F9D2EAE3F2E0DF01A0
:1003A0001D92CA95E9F78091E8008E778093E80066
:1003B0005D9A88E893E19093210180932001CF9189
:1003C0000895CF93DF9300D000D0CDB7DEB78EB3C2
:1003D000843099F582E08093E9008091E80082FF03
:1003E0002CC040E050E064E070E0CE01019617D3ED
:1003F0008A819091C80095FFFCCF8093CE008B81BD
:100400009091C80095FFFCCF8093CE008C81909195
:10041000C80095FFFCCF8093CE005C9A88E893E1FA
:1004200090931F0180931E018091F200811105C0FD
:100430008091E8008B778093E8000F900F900F90E9
:100440000F90DF91CF910895CF9315DF80911B011D
:1004500090911C01009709F08BC0EEE2F2E04FB7DB
:10046000F8948EEA91E091838083938382839583CD
:1004700084838EE292E09783868320E830E03187A0
:100480002087138612864FBFE2EAF1E04FB7F89457
:1004900082E291E091838083938382839583848336
:1004A00082EA91E0978386833187208713861286BC
:1004B0004FBF80E1A7DE78942FB7F894809138027F
:1004C000909139022FBF20913602309137022817C0
:1004D000390749F080E091E095D797FD04C0682F77
:1004E0008EE292E094DE2FB7F8948091AC01909167
:1004F000AD012FBF009729F48091C80085FD21C070
:1005000032C0209101012F702093E9002091E80072
:1005100020FFF2CF8031910510F08FE090E0C82FDE
:10052000E091A401F091A501608180E091E002D703
:10053000C1508111E1CF82EA91E084DEC111F0CF98
:10054000DBCF2FB7F89480913802909139022FBFFA
:10055000892B49F08EE292E075DE9091C80095FFFC
:10056000FCCF8093CE0080E091E037D7A5D6A4CF12
:10057000019701F578947894809120019091210160
:10058000009731F00197909321018093200101C0E1
:100590005D9880911E0190911F01009731F00197A5
:1005A00090931F0180931E0101C05C980ADFDDDE7D
:1005B00083D6E2CF80E090E0CF910895CF93FC0105
:1005C000818D813021F0823021F4C0E203C0C0E38C
:1005D00001C0C0E0808D823009F4C860828D873010
:1005E00031F0883031F0863029F4C26003C0C46035
:1005F00001C0C6605B9A1092C9001092C8001092A8
:10060000CA002489358946895789DA01C901B69516
:10061000A79597958795BC01CD0160587B47814E82
:100620009F4FCCD7215031093093CD002093CC007F
:10063000C093CA0082E08093C80088E98093C90013
:100640005B98CF91089587FF0CC09CE0980F923083
:1006500040F0982F9B7F993F21F0803F18F4807FD6
:10066000089580E00895982F9F7E282F2F7C2038B2
:1006700039F0803E29F081E0903C19F080E001C023
:1006800081E0817008951F920F920FB60F9211248E
:100690002F933F934F935F936F937F938F939F938A
:1006A000AF93BF93CF93DF93EF93FF9380911B01A1
:1006B00090911C010097C9F46091CE008EB38430F4
:1006C00009F0FAC02FB7F8948091AC019091AD0178
:1006D0002FBF2091AA013091AB012817390709F4E7
:1006E000EBC082EA91E093DDE7C0019709F0E4C036
:1006F0008EB3843009F0E0C0C091CE0080914102F9
:10070000811178C0C0934302D09140028D2F9BDFAE
:10071000AADF882349F0C7FD07C0D0934302C093E6
:10072000440281E080934102C09143028C2F8BDF11
:10073000813F91F188F4803B89F138F4803971F17F
:10074000803A61F1803869F529C0803D29F1803E09
:1007500029F1803C31F520C0883F69F030F4833FB7
:10076000D9F0E0F0863F39F01CC08A3FD0F08D3FD1
:1007700010F08E3FB0F08FE080933A02C0933B02BE
:1007800010923C0210923D0281E080933E02109252
:10079000410210923F0290C092E001C093E090931A
:1007A0003F029091410240913F02692F70E0242F57
:1007B00030E02150310962177307C4F082958F70C1
:1007C00080933A02C0933B028091440280933C02A2
:1007D000433029F48091450280933D0202C010927B
:1007E0003D021092410210923F021BC09F5F909306
:1007F000410262C0C7FF19C0CD3F28F4CA3F28F4A8
:10080000C83F99F402C0CE3F80F08C2F1CDF829548
:100810008F7080933A02C0933B0210923C02109278
:100820003D0281E080933E0247C0482F50E0FA012C
:10083000ED5BFD4FC083D0913F022D2F30E0215062
:10084000310942175307ACF1C09143028C2FFBDEF4
:10085000982F92959F7090933A02C0933B0290918B
:10086000440290933C02D33029F490914502909336
:100870003D0202C010923D021092410210923F02CE
:1008800091E090933E02803B71F038F4803959F04A
:10089000803A49F0803851F406C0803D21F0803E16
:1008A00011F0803C19F4C093400206C0109240023F
:1008B00003C08F5F80934102FF91EF91DF91CF9151
:1008C000BF91AF919F918F917F916F915F914F9168
:1008D0003F912F910F900FBE0F901F901895292FC9
:1008E000332722303105A1F023303105F1F02130DA
:1008F000310509F043C080911B0190911C010097C4
:1009000099F10197D9F582E190E027E931E03AC009
:1009100080911B0190911C01009759F1019771F58D
:1009200085E690E024EF30E02DC0992781309105D5
:1009300039F018F0029739F021C0E0EFF0E010C074
:10094000E2EDF0E00DC080911B0190911C01009739
:1009500019F4E0EAF0E004C0019781F4E4E7F0E084
:10096000849190E09F010EC082E190E029EA31E09D
:1009700009C08EE390E029E531E004C080E090E01A
:1009800020E030E0FA01318320830895CF92DF9296
:10099000EF92FF920F931F93CF93DF93EC018B01A4
:1009A0007A01C8D1811132C0E114F10439F0F701A4
:1009B00080819181081B190BC80FD91FC12CD12C24
:1009C0000115110511F18091E80085FD15C0809198
:1009D000E8008E778093E800E114F10449F0F70114
:1009E00080819181C80ED91ED182C08285E00EC05F
:1009F000A1D1882329F30AC089918093F100015085
:100A00001109FFEFCF1ADF0ADBCF80E0DF91CF9132
:100A10001F910F91FF90EF90DF90CF900895CF92AC
:100A2000DF92EF92FF920F931F93CF93DF93EC012E
:100A30008B017A017FD1811132C0E114F10439F0C8
:100A4000F70180819181081B190BC80FD91FC12C98
:100A5000D12C0115110511F18091E80085FD15C01B
:100A60008091E8008B778093E800E114F10449F06D
:100A7000F70180819181C80ED91ED182C08285E0A4
:100A80000EC058D1882329F30AC08091F1008993C0
:100A900001501109FFEFCF1ADF0ADBCF80E0DF91B1
:100AA000CF911F910F91FF90EF90DF90CF9008951D
:100AB00020915002309151022617370748F06115F6
:100AC000710539F42091E8002E772093E80001C0E9
:100AD000B901FC0120E06115710559F18EB388233D
:100AE000D1F18530D1F18091E80083FD38C080914B
:100AF000E80082FD2AC08091E80080FFECCF809161
:100B0000F20090E06115710551F08830910538F4DC
:100B100021912093F100615071090196F3CF21E0FA
:100B2000089709F020E08091E8008E778093E80034
:100B3000D2CF2111D3CF09C08EB3882361F0853085
:100B400061F08091E80083FD0AC08091E80082FF97
:100B5000F3CF80E0089582E0089583E0089581E076
:100B6000089520915002309151022617370748F01E
:100B70006115710539F42091E8002E772093E80083
:100B800001C0B901FC0120E06115710561F18EB36E
:100B90008823D9F18530D9F18091E80083FD39C0EF
:100BA0008091E80082FD2BC08091E80080FFECCFAF
:100BB0008091F20090E06115710559F0883091053F
:100BC00040F424912093F10031966150710901960F
:100BD000F2CF21E0089709F020E08091E8008E77BD
:100BE0008093E800D1CF2111D2CF09C08EB38823E2
:100BF00061F0853061F08091E80083FD0AC080914A
:100C0000E80082FFF3CF80E0089582E0089583E05A
:100C1000089581E00895982F953068F59093E90044
:100C2000981739F07091EC002091ED005091F00090
:100C300003C0242F762F50E021FD02C09F5FECCF30
:100C40003091EB003E7F3093EB003091ED003D7F23
:100C50003093ED003091EB0031603093EB007093F6
:100C6000EC002093ED005093F0002091EE0027FD62
:100C7000E5CF80E008958F708093E90081E00895CA
:100C80000F931F93CF93DF93062FEC0110E0101703
:100C900071F19881911103C01F5F2596F8CF2C81C7
:100CA000A981BA816B81892F8F70853010F080E027
:100CB0001FC0223010F442E001C046E0E8E0F0E05E
:100CC00020E0EA17FB0720F42F5FEE0FFF1FF9CF9C
:100CD0002295207F422B6295660F660F607C991FDC
:100CE0009927991F692B97DF8111D6CFE0CF81E03B
:100CF000DF91CF911F910F91089580914A0287FF54
:100D00000FC08091E80082FD04C08EB38111F9CF3D
:100D100010C08091E8008B770AC08EB3882349F019
:100D20008091E80080FFF9CF8091E8008E77809372
:100D3000E80008952091E4003091E50095E64091A7
:100D4000EC00842F817040FF22C08091E80080FD7C
:100D50001CC08EB3882399F0853099F08091EB0008
:100D600085FD11C04091E4005091E500241735073E
:100D700031F3915011F09A01E2CF84E0089582E0BE
:100D8000089583E0089581E0089580E008954091FA
:100D9000E80042FFDECF089540D042D08091D800D5
:100DA0008F778093D8008091D80080688093D80096
:100DB0008091D8008F7D8093D80084E089BD86E043
:100DC00089BD09B400FEFDCF1EBA109246021092F2
:100DD00048021092470242E060E080E01CDF809110
:100DE000E1008E7F8093E1008091E200816080933A
:100DF000E2008091E20088608093E2008091E00050
:100E00008E7F8093E0000895E3E6F0E080818E7F9E
:100E1000808381E080934902BFCF1092E200089561
:100E20001092E10008951F920F920FB60F921124B5
:100E30002F933F934F935F936F937F938F939F93E2
:100E4000AF93BF93EF93FF938091E10082FF0AC0BD
:100E50008091E20082FF06C08091E1008B7F809349
:100E6000E10029D28091E10080FF16C08091E2006C
:100E700080FF12C08091E2008E7F8093E20080911B
:100E8000E20080618093E2008091D80080628093CC
:100E9000D80019BC1EBA45DA8091E10084FF2EC04B
:100EA0008091E20084FF2AC084E089BD86E089BD8C
:100EB00009B400FEFDCF8091D8008F7D8093D800CB
:100EC0008091E1008F7E8093E1008091E2008F7E2F
:100ED0008093E2008091E20081608093E200809143
:100EE0004602882311F084E007C08091E30087FD6B
:100EF00002C081E001C083E08EBB11DA8091E10085
:100F000083FF26C08091E20083FF22C08091E10030
:100F1000877F8093E10082E08EBB10924602809131
:100F2000E1008E7F8093E1008091E2008E7F8093CC
:100F3000E2008091E20080618093E20042E060E0A4
:100F400080E069DE8091F00088608093F000B3D18A
:100F5000FF91EF91BF91AF919F918F917F916F9191
:100F60005F914F913F912F910F900FBE0F901F9067
:100F700018951F920F920FB60F9211242F933F9343
:100F80004F935F936F937F938F939F93AF93BF9391
:100F9000CF93DF93EF93FF93C091E900CF708091DF
:100FA000EC00D82FD17080FDD0E81092E90080913C
:100FB000F000877F8093F00078941ED01092E900B3
:100FC0008091F00088608093F000CD2BCF70C093AB
:100FD000E900FF91EF91DF91CF91BF91AF919F9188
:100FE0008F917F916F915F914F913F912F910F90D2
:100FF0000FBE0F901F9018951F93CF93DF93CDB71F
:10100000DEB7AA970FB6F894DEBF0FBECDBFEAE4F5
:10101000F2E08091F100819322E0E235F207C9F716
:10102000A0D98091E80083FF2EC180914A0290915F
:101030004B02953009F483C030F49130A9F168F087
:10104000933091F120C1983009F4EEC0993009F441
:10105000FAC0963009F017C193C0803821F0823869
:1010600009F011C108C0809147029091480299236C
:1010700089F082600FC080914E028F70853008F039
:1010800002C18093E9008091EB0085FB882780F9FD
:101090001092E9009091E800977F9093E800809388
:1010A000F1001092F100CBC0282F2D7F09F0EBC08A
:1010B000882319F0823061F0E6C080914C028130C3
:1010C00009F0E1C0933009F080E0809348022EC01F
:1010D00080914C0281112AC080914E028F702FEFB7
:1010E000280F243008F0CFC08093E9002091EB0056
:1010F00020FF1CC0933021F48091EB00806214C06B
:101100009091EB0090619093EB0021E030E0A90119
:1011100002C0440F551F8A95E2F74093EA001092EF
:10112000EA008091EB0088608093EB001092E90068
:101130008091E800877F8093E800DFDDA4C0811103
:10114000A2C010914C021F778091E3008078812B20
:101150008093E3008091E800877F8093E800CDDDF5
:101160008091E80080FFFCCF8091E300806880934D
:10117000E300111102C082E001C083E08EBB83C096
:101180008058823008F07FC080914C0290914D02CF
:101190008C3D53E0950771F583E08A838AE2898369
:1011A0004FB7F894DE01139620E03EE051E2E32FC2
:1011B000F0E050935700E49120FF03C0E295EF70F8
:1011C0003F5FEF708E2F90E0EA3010F0C79601C0BD
:1011D000C0968D939D932F5F243149F74FBF809127
:1011E000E800877F8093E8006AE270E0CE01019614
:1011F0005FDC14C060914E0270914F02AE014F5FF0
:101200005F4F6DDBBC01892B09F43DC09091E80074
:10121000977F9093E80089819A81A3DC8091E80010
:101220008B778093E8002FC0803869F58091E800C3
:10123000877F8093E800809146028093F10080913F
:10124000E8008E7778CF81111EC080914C0290917A
:101250004D0299270297BCF48091E800877F809324
:10126000E80080914C028093460247DD809146025F
:10127000811106C08091E30087FD02C081E001C0BA
:1012800084E08EBB50D88091E80083FF0AC0809133
:10129000E800877F8093E8008091EB008062809374
:1012A000EB00AA960FB6F894DEBF0FBECDBFDF915C
:1012B000CF911F9108950895CF938EB3882399F00D
:1012C000C091E900CF709091EC00892F817090FD62
:1012D00080E8C82B1092E9008091E80083FD8CDE45
:1012E000CF70C093E900CF910895CF93DF93EC01C5
:1012F000FC0170968BE0DF011D928A95E9F782E090
:101300008C83898783E08E8761E0CE010196B8DC0B
:10131000882361F061E0CE010696B2DC882331F0CB
:1013200061E0CE010B96DF91CF91AACC80E0DF91F6
:10133000CF9108950F931F93CF932EB32430F9F4D8
:10134000FC010489158926893789012B022B032B7F
:10135000B1F0C62F81818F708093E9008091E80001
:1013600085FF04C0C093F10080E00AC08091E800CE
:101370008E778093E800DEDC8823A1F301C082E051
:10138000CF911F910F9108952EB3243021F5FC01C8
:101390004489558966897789452B462B472BD9F097
:1013A00081818F708093E9008091F200882389F019
:1013B0009091E8008091E8008E778093E80095FD99
:1013C00008C0B8DC811108C08091E8008E77809356
:1013D000E80080E0089582E008952EB3243089F477
:1013E000FC014489558966897789452B462B472B13
:1013F00041F021812F702093E9002091E80020FD29
:10140000C3CF08952EB3243019F08FEF9FEF0895C6
:10141000FC014489558966897789452B462B472BE2
:10142000A1F386818F708093E9008091E80082FFAC
:10143000ECCF8091F200882321F02091F10030E080
:1014400002C02FEF3FEF8091F200811105C0809123
:10145000E8008B778093E800C90108950895CF9341
:10146000DF93EC018091E80083FFA5C0888190E0C4
:1014700020914E0230914F022817390709F09BC086
:1014800080914B02813261F020F4803209F43EC039
:1014900092C0823209F46BC0833209F47CC08BC0E5
:1014A00080914A02813A09F086C08091E800877FE6
:1014B0008093E8008091E80080FFFCCF8C899D89B3
:1014C000AE89BF898093F100492F5A2F6B2F772760
:1014D0004093F100AD01662777274093F1008B2FF1
:1014E0009927AA27BB278093F100888D8093F1006C
:1014F000898D8093F1008A8D8093F1008091E800BE
:101500008E778093E800DF91CF91F7CB80914A02EC
:10151000813209F050C08091E800877F8093E80015
:101520008091E80082FD04C08EB38111F9CF43C0E1
:101530003091F1002091F1009091F1008091F10043
:101540003C8B2D8B9E8B8F8B8091F100888F8091AF
:10155000F100898F8091F1008A8F8091E8008B776C
:101560008093E800CADBCE01DF91CF9127C880913C
:101570004A02813201F58091E800877F8093E8007C
:10158000BCDB80914C0290914D02998B888BCE01EF
:10159000DF91CF9163CF80914A02813261F48091D3
:1015A000E800877F8093E800A8DB60914C02CE01C1
:1015B000DF91CF9153CFDF91CF910895A1E21A2E01
:1015C000AA1BBB1BFD010DC0AA1FBB1FEE1FFF1FE7
:1015D000A217B307E407F50720F0A21BB30BE40B37
:1015E000F50B661F771F881F991F1A9469F760957E
:1015F0007095809590959B01AC01BD01CF01089538
:04160000F894FFCF8C
:1016040000831000000104100000018208000001A2
:0E1614000000000000000000000000010000C7
:00000001FF
